{
  "address": "0xe7f1725E7734CE288F8367e1Bb143E90bb3F0512",
  "abi": [
    {
      "inputs": [],
      "stateMutability": "nonpayable",
      "type": "constructor"
    },
    {
      "anonymous": false,
      "inputs": [
        {
          "indexed": true,
          "internalType": "address",
          "name": "deployer",
          "type": "address"
        },
        {
          "indexed": false,
          "internalType": "address",
          "name": "greeter",
          "type": "address"
        }
      ],
      "name": "Deployment",
      "type": "event"
    },
    {
      "inputs": [
        {
          "internalType": "address",
          "name": "deployer",
          "type": "address"
        },
        {
          "internalType": "address",
          "name": "greeter",
          "type": "address"
        }
      ],
      "name": "emitDeploy",
      "outputs": [],
      "stateMutability": "nonpayable",
      "type": "function"
    }
  ],
  "transactionHash": "0x7eef09b3d57505f74fbe861540c9c5ebed50344d1bba25141b5b52c374f9fcbd",
  "args": [],
  "numDeployments": 1,
  "solcInputHash": "24d7ad3d3a97b5a194a632ec02250b0e",
  "bytecode": "0x608060405234801561001057600080fd5b506101a1806100206000396000f3fe608060405234801561001057600080fd5b506004361061002b5760003560e01c8063e1005d4414610030575b600080fd5b61004a60048036038101906100459190610101565b61004c565b005b8173ffffffffffffffffffffffffffffffffffffffff167f82488d8ab594db2178e4a45b7106aaa804836e608f001b5d7fcb6c3514730b3e826040516100929190610150565b60405180910390a25050565b600080fd5b600073ffffffffffffffffffffffffffffffffffffffff82169050919050565b60006100ce826100a3565b9050919050565b6100de816100c3565b81146100e957600080fd5b50565b6000813590506100fb816100d5565b92915050565b600080604083850312156101185761011761009e565b5b6000610126858286016100ec565b9250506020610137858286016100ec565b9150509250929050565b61014a816100c3565b82525050565b60006020820190506101656000830184610141565b9291505056fea2646970667358221220d18168d4e4700fe547a475707dabbe73ef1b0f5d5f6db2883309db5d6addaa4c64736f6c63430008130033",
  "devdoc": {
    "kind": "dev",
    "methods": {},
    "version": 1
  },
  "userdoc": {
    "kind": "user",
    "methods": {},
    "version": 1
  },
  "storageLayout": {
    "storage": [],
    "types": null
  }
}